:020000021000EC
:10E000000C9491F00C94C0F00C94C0F00C94C0F0FF
:10E010000C94C0F00C94C0F00C94C0F00C94C0F0C0
:10E020000C94C0F00C94C0F00C94C0F00C94C0F0B0
:10E030000C94C0F00C94E8F20C94C0F00C94C0F076
:10E040000C94C0F00C94C0F00C94C0F00C94C0F090
:10E050000C94C0F00C94C0F00C94C0F00C94C0F080
:10E060000C94C0F00C94C0F00C94C0F00C94C0F070
:10E070000C94C0F00C94C0F00C94C0F00C94C0F060
:10E080000C94C0F00C94C0F00C94C0F00C94C0F050
:10E090000C94C0F00C94C0F00C94C0F00C94C0F040
:10E0A0000C94C0F00C94C0F00C94C0F00C94C0F030
:10E0B0000C94C0F00C94C0F00C94C0F00C94C0F020
:10E0C0000C94C0F00C94C0F00C94C0F00C94C0F010
:10E0D0000C94C0F00C94C0F00C94C0F00C94C0F000
:10E0E0000C94C0F00C94C0F00C94C0F00C94C0F0F0
:10E0F0000C94C0F00C94C0F00C94C0F00C94C0F0E0
:10E100000C94C0F00C94C0F00C94C0F00C94C0F0CF
:10E110000C94C0F00C94C0F00C94C0F00C94C0F0BF
:10E1200048F311241FBECFEFD1E4DEBFCDBF12E014
:10E13000A0E0B2E0E8EEFCEE01E00BBF02C0079009
:10E140000D92A031B107D9F712E0A0E1B2E001C011
:10E150001D92AF32B107E1F711EEC2E2D1EE01E05C
:10E1600006C022970109FE010BBF0E945FF3C03277
:10E17000D10781E00807A9F70E94C2F00C9472F65B
:10E180000C9400F01F93CF93DF930E9412F30E9430
:10E190000AF288E10FB6F894809360001092600054
:10E1A0000FBE8FEF0E942DF380ED97E0EFE9FFE0C7
:10E1B0003197F1F700C00000A8950197B9F780E00A
:10E1C0000E9434F386E190E00E94BCF5182FC82F1E
:10E1D000D0E09E012095309584E0359527958A956D
:10E1E000E1F72C273D272F70307021153105C1F440
:10E1F00088E190E00E94BCF5282F30E01F7002C03B
:10E20000359527951A95E2F720FF0AC0CF70D07098
:10E2100080E090E060E07C2F40E051E00E946BF1F4
:10E2200086E190E06FEF0E94C4F50E941DF180E04E
:10E2300090E0DF91CF911F9108950C940000089514
:10E24000DF92EF92FF920F931F93CF93DF93DA0148
:10E25000F999FECF23E0FB0180935B0020935700E8
:10E26000E89507B600FCFDCF9B01AC0100E010E093
:10E27000DD24D394EC911196FC901197EE24E701E4
:10E28000CE0FD11D12960E01F90140935B00D09282
:10E290005700E89511240E5F1F4F2E5F3F4F4F4FE1
:10E2A0005F4FE1E000301E0729F725E0FB01809376
:10E2B0005B0020935700E89507B600FCFDCF81E195
:10E2C00080935700E895DF91CF911F910F91FF90B8
:10E2D000EF90DF9008956F927F928F929F92AF920E
:10E2E000BF92CF92DF92EF92FF920F931F93DF9333
:10E2F000CF93CDB7DEB7C050D1400FB6F894DEBF94
:10E300000FBECDBF6A017B0100E010E0102F0F2D82
:10E31000FE2CEE244C01AA24BB24BA2CA92C982C48
:10E3200088243E010894611C711C1FC0C801B701FC
:10E33000A30120E031E00E940FF2C501B401A30166
:10E340000E9420F180E091E0A0E0B0E0E80EF91E2C
:10E350000A1F1B1F880E991EAA1EBB1EA89582E0CD
:10E360000E941AF30894C108D108C114D104F1F62F
:10E37000C050DF4F0FB6F894DEBF0FBECDBFCF91B8
:10E38000DF911F910F91FF90EF90DF90CF90BF90A2
:10E39000AF909F908F907F906F9008958091100222
:10E3A000882341F481E0809310021092B90088E440
:10E3B0008093B8000895662311F024EC01C024E88E
:10E3C0002093BC002091BC0027FFFCCF2091BB0014
:10E3D000FC0120838091B900887F08958093BB0061
:10E3E00084E88093BC008091BC0087FFFCCF8091C3
:10E3F000B900887F089584EA8093BC008091BC00B6
:10E4000087FFFCCF8091B900887F089584E98093CD
:10E41000BC0008950E94CEF1569A5E9808959F928E
:10E42000AF92BF92CF92DF92EF92FF920F931F9322
:10E43000CF93DF936B017C015A01E901DC01CB0131
:10E440004FE0B695A795979587954A95D1F732E015
:10E45000932E982280EA982AA0E0CA16A1E0DA0654
:10E46000A2E0EA06A0E0FA0608F07CC09E0140E0C7
:10E4700050E02C0D3D1D4E1D5F1D2030B1E03B07CF
:10E48000B2E04B07B0E05B0708F06CC000E010E0C2
:10E490000E94FBF1883039F0803129F080E092E071
:10E4A0000E9475F33FC0892D0E94EEF1803231F455
:10E4B0000F5F1F4F083C110559F718C08831D9F07C
:10E4C00000D000D0EDB7FEB7319622E032E0ADB714
:10E4D000BEB712963C932E931197828313820E94AB
:10E4E00063F30F900F900F900F901CC088E092E0A4
:10E4F0000E9475F337C08D2D0E94EEF1883291F4A1
:10E500008C2D0E94EEF1883269F40E94FBF180317B
:10E5100049F4892D81600E94EEF1803419F400E005
:10E5200010E018C00E9406F21DC0C130D10519F4D8
:10E53000C90160E002C0C90161E00E94DBF18035E1
:10E5400031F0C130D10559F40F5F1F4F08C00F5F84
:10E550001F4F21979501200F311F209731F70E94FF
:10E5600006F202C000E010E0C801DF91CF911F91D8
:10E570000F91FF90EF90DF90CF90BF90AF909F9062
:10E5800008958091110290911202A0911302B0910E
:10E5900014020196A11DB11D8093110290931202E5
:10E5A000A0931302B0931402809115029091160269
:10E5B000A0911702B09118020196A11DB11D809380
:10E5C000150290931602A0931702B09318020895B3
:10E5D0001F920F920FB60F920BB60F9211242F932A
:10E5E0003F934F935F936F937F938F939F93AF93DB
:10E5F000BF93EF93FF930E94C1F2FF91EF91BF9100
:10E60000AF919F918F917F916F915F914F913F91CA
:10E610002F910F900BBE0F900FBE0F901F9018956B
:10E62000A19A0895999A0E9410F39A9AA29A9D9A93
:10E63000A59A089580FF04C024B332E0232724BBA9
:10E6400081FF04C024B334E0232724BB82FF04C02D
:10E6500084B390E2892784BB089580FDA19881FD51
:10E66000A29882FDA5980895CF93DF93C82FD0E09C
:10E67000CE0180FF02C00E9410F3C1FF02C00E94C1
:10E6800010F3C2FF02C00E9410F3DF91CF910895F2
:10E6900089E192E00E944DF30895FC0111821082FD
:10E6A00012821382148215821682178210861186B6
:10E6B0001286138614861586168617860895079087
:10E6C000F691E02D0994DF93CF93CDB7DEB7FE012D
:10E6D00035966191719180912B0290912C02AF013E
:10E6E0000E94ACF3CF91DF910895EF92FF920F93C8
:10E6F0001F93CF93DF938C01E0912B02F0912C02BA
:10E70000838181FF1FC0C0E0D0E00AC0DB01189602
:10E71000ED91FC9119970995009711F0CFEFDFEF7C
:10E72000F80181918F0160912B0270912C02882356
:10E7300069F7DB011896ED91FC9119978AE009952C
:10E74000009711F0CFEFDFEFCE01DF91CF911F9156
:10E750000F91FF90EF9008952F923F924F925F920A
:10E760006F927F928F929F92AF92BF92CF92DF92E1
:10E77000EF92FF920F931F93DF93CF93CDB7DEB746
:10E780002C970FB6F894DEBF0FBECDBF6C011B01F6
:10E790008A01FC0117821682838181FFD1C12E017B
:10E7A0000894411C511CF6019381F10193FD859160
:10E7B00093FF81911F01882309F4BEC1853239F48A
:10E7C00093FD859193FF81911F01853229F490E09B
:10E7D000B6010E94E8F5E7CFEE24FF2420E02032C6
:10E7E000B0F48B3269F08C3228F4803251F08332ED
:10E7F00071F40BC08D3239F0803349F421602CC0A4
:10E800002260246029C0286027C0206125C027FD20
:10E810002CC0382F30533A3098F426FF08C08E2D84
:10E82000880FE82EEE0CEE0CE80EE30E15C08F2DCF
:10E83000880FF82EFF0CFF0CF80EF30E20620CC0B0
:10E840008E3221F426FD78C1206406C08C3611F486
:10E85000206802C0883649F4F10193FD859193FF49
:10E8600081911F01882309F0BACF982F95549330D6
:10E8700018F09052933028F40C5F1F4FFFE3F98398
:10E880000DC0833631F0833771F0833509F060C0F5
:10E8900022C0F801808189830E5F1F4F420171E021
:10E8A000A72EB12C16C062E0662E712C600E711E70
:10E8B000F8018080918026FF03C06E2D70E002C0B9
:10E8C0006FEF7FEFC4012C870E94DDF55C018301AF
:10E8D0002C852F7717C052E0652E712C600E711EAB
:10E8E000F8018080918026FF03C06E2D70E002C089
:10E8F0006FEF7FEFC4012C870E94D2F55C012C855D
:10E900002068830123FD20C008C080E290E0B601AA
:10E910002C870E94E8F5FA942C858F2D90E0A8169C
:10E92000B90698F311C0F40127FD859127FF819165
:10E930004F0190E0B6012C870E94E8F52C85F1107C
:10E94000FA940894A108B108A114B10461F7F1C0C8
:10E95000843611F0893649F527FF08C0F801608137
:10E960007181828193810C5F1F4F09C0F801608122
:10E970007181882777FD8095982F0E5F1F4F4FE696
:10E98000B42EB22297FF09C090958095709561953D
:10E990007F4F8F4F9F4FF0E8BF2AA2012AE030E05F
:10E9A0000E9414F6782E741845C0853731F43FEE76
:10E9B000B32EB2222AE030E025C099EFB92EB22260
:10E9C0008F36C1F0803720F4883509F0B5C00DC00E
:10E9D000803721F0883709F0AFC002C020E1B22AA9
:10E9E000B4FE0BC084E0B82A08C0B4FE09C0E6E05B
:10E9F000BE2A06C028E030E005C020E130E002C0B9
:10EA000020E132E0B7FE08C0F801608171818281A7
:10EA100093810C5F1F4F07C0F8016081718180E016
:10EA200090E00E5F1F4FA2010E9414F6782E74181A
:10EA3000FFE7BF22B6FE0BC02EEFB2227E1438F4E1
:10EA4000B4FE07C0B2FC05C08FEEB82202C0A72CEE
:10EA500001C0AE2C8B2D90E0B4FE0DC0FE01E70D81
:10EA6000F11D2081203319F4E9EEBE2209C0A394E0
:10EA7000B2FE06C004C086789070009709F0A39497
:10EA80008B2C9924B3FC14C0B0FE0FC0AF1428F433
:10EA9000E72CEF0CEA18AF2C08C0E72C06C080E288
:10EAA00090E0B6010E94E8F5A394AF14C0F304C04F
:10EAB000AF1410F4FA1801C0FF2484FE0FC080E3E5
:10EAC00090E0B6010E94E8F582FE1FC081FE03C0FF
:10EAD00088E590E010C088E790E00DC0C40186781A
:10EAE0009070009791F081FC02C080E201C08BE23F
:10EAF000B7FC8DE290E0B6010E94E8F506C080E325
:10EB000090E0B6010E94E8F5EA947E14C0F37A948E
:10EB1000F201E70DF11D808190E0B6010E94E8F559
:10EB20007720A9F706C080E290E0B6010E94E8F5E0
:10EB3000FA94FF20C1F737CEF6012681378102C053
:10EB40002FEF3FEFC9012C960FB6F894DEBF0FBE32
:10EB5000CDBFCF91DF911F910F91FF90EF90DF908C
:10EB6000CF90BF90AF909F908F907F906F905F906D
:10EB70004F903F902F900895F999FECF92BD81BD9F
:10EB8000F89A992780B50895262FF999FECF1FBAD4
:10EB900092BD81BD20BD0FB6F894FA9AF99A0FBEC6
:10EBA00001960895FC010590615070400110D8F75E
:10EBB000809590958E0F9F1F0895FC0161507040C5
:10EBC00001900110D8F7809590958E0F9F1F0895A2
:10EBD0000F931F93CF93DF938C01EB018B8181FF08
:10EBE0001BC082FF0DC02E813F818C819D81281723
:10EBF000390764F4E881F9810193F983E88306C059
:10EC0000E885F985802F0995009731F48E819F81E1
:10EC100001969F838E8302C00FEF1FEFC801DF9123
:10EC2000CF911F910F910895FA01AA27283051F131
:10EC3000203181F1E8946F936E7F6E5F7F4F8F4F2D
:10EC40009F4FAF4FB1E03ED0B4E03CD0670F781F8C
:10EC5000891F9A1FA11D680F791F8A1F911DA11D71
:10EC60006A0F711D811D911DA11D20D009F46894AA
:10EC70003F912AE0269F11243019305D3193DEF652
:10EC8000CF010895462F4770405D4193B3E00FD008
:10EC9000C9F7F6CF462F4F70405D4A3318F0495DF3
:10ECA00031FD4052419302D0A9F7EACFB4E0A695D6
:10ECB0009795879577956795BA95C9F700976105F8
:10ECC000710508959B01AC010A2E0694579547954E
:10ECD00037952795BA95C9F7620F731F841F951F43
:08ECE000A01D0895F894FFCF78
:10ECE8004100422025780A004232004300440000D7
:040000031000E00009
:00000001FF
